{"contracts/Counter.sol":{"Counter":{"abi":[{"anonymous":false,"inputs":[{"indexed":false,"internalType":"uint256","name":"counter","type":"uint256"},{"indexed":false,"internalType":"address","name":"sender","type":"address"}],"name":"Increment","type":"event"},{"inputs":[],"name":"counter","outputs":[{"internalType":"uint256","name":"","type":"uint256"}],"stateMutability":"view","type":"function"},{"inputs":[{"internalType":"uint256","name":"_counter","type":"uint256"}],"name":"increment","outputs":[],"stateMutability":"nonpayable","type":"function"}],"evm":{"bytecode":{"linkReferences":{},"object":"608060405234801561001057600080fd5b50610264806100206000396000f3fe608060405234801561001057600080fd5b50600436106100365760003560e01c806361bc221a1461003b5780637cf5dab014610059575b600080fd5b610043610075565b60405161005091906100e8565b60405180910390f35b610073600480360381019061006e9190610134565b61007b565b005b60005481565b8060008082825461008c9190610190565b925050819055507f04b3522d7223b6ca3966d7b8e6987b92072f14761d7c6d3d6fb653defbae11b681336040516100c4929190610205565b60405180910390a150565b6000819050919050565b6100e2816100cf565b82525050565b60006020820190506100fd60008301846100d9565b92915050565b600080fd5b610111816100cf565b811461011c57600080fd5b50565b60008135905061012e81610108565b92915050565b60006020828403121561014a57610149610103565b5b60006101588482850161011f565b91505092915050565b7f4e487b7100000000000000000000000000000000000000000000000000000000600052601160045260246000fd5b600061019b826100cf565b91506101a6836100cf565b92508282019050808211156101be576101bd610161565b5b92915050565b600073ffffffffffffffffffffffffffffffffffffffff82169050919050565b60006101ef826101c4565b9050919050565b6101ff816101e4565b82525050565b600060408201905061021a60008301856100d9565b61022760208301846101f6565b939250505056fea264697066735822122098ecb3a608e159c4145a3f502bc8c93f616614692abc173c4999460ff81658f164736f6c63430008130033","opcodes":"PUSH1 0x80 PUSH1 0x40 MSTORE CALLVALUE DUP1 ISZERO PUSH2 0x10 JUMPI PUSH1 0x0 DUP1 REVERT JUMPDEST POP PUSH2 0x264 DUP1 PUSH2 0x20 PUSH1 0x0 CODECOPY PUSH1 0x0 RETURN INVALID PUSH1 0x80 PUSH1 0x40 MSTORE CALLVALUE DUP1 ISZERO PUSH2 0x10 JUMPI PUSH1 0x0 DUP1 REVERT JUMPDEST POP PUSH1 0x4 CALLDATASIZE LT PUSH2 0x36 JUMPI PUSH1 0x0 CALLDATALOAD PUSH1 0xE0 SHR DUP1 PUSH4 0x61BC221A EQ PUSH2 0x3B JUMPI DUP1 PUSH4 0x7CF5DAB0 EQ PUSH2 0x59 JUMPI JUMPDEST PUSH1 0x0 DUP1 REVERT JUMPDEST PUSH2 0x43 PUSH2 0x75 JUMP JUMPDEST PUSH1 0x40 MLOAD PUSH2 0x50 SWAP2 SWAP1 PUSH2 0xE8 JUMP JUMPDEST PUSH1 0x40 MLOAD DUP1 SWAP2 SUB SWAP1 RETURN JUMPDEST PUSH2 0x73 PUSH1 0x4 DUP1 CALLDATASIZE SUB DUP2 ADD SWAP1 PUSH2 0x6E SWAP2 SWAP1 PUSH2 0x134 JUMP JUMPDEST PUSH2 0x7B JUMP JUMPDEST STOP JUMPDEST PUSH1 0x0 SLOAD DUP2 JUMP JUMPDEST DUP1 PUSH1 0x0 DUP1 DUP3 DUP3 SLOAD PUSH2 0x8C SWAP2 SWAP1 PUSH2 0x190 JUMP JUMPDEST SWAP3 POP POP DUP2 SWAP1 SSTORE POP PUSH32 0x4B3522D7223B6CA3966D7B8E6987B92072F14761D7C6D3D6FB653DEFBAE11B6 DUP2 CALLER PUSH1 0x40 MLOAD PUSH2 0xC4 SWAP3 SWAP2 SWAP1 PUSH2 0x205 JUMP JUMPDEST PUSH1 0x40 MLOAD DUP1 SWAP2 SUB SWAP1 LOG1 POP JUMP JUMPDEST PUSH1 0x0 DUP2 SWAP1 POP SWAP2 SWAP1 POP JUMP JUMPDEST PUSH2 0xE2 DUP2 PUSH2 0xCF JUMP JUMPDEST DUP3 MSTORE POP POP JUMP JUMPDEST PUSH1 0x0 PUSH1 0x20 DUP3 ADD SWAP1 POP PUSH2 0xFD PUSH1 0x0 DUP4 ADD DUP5 PUSH2 0xD9 JUMP JUMPDEST SWAP3 SWAP2 POP POP JUMP JUMPDEST PUSH1 0x0 DUP1 REVERT JUMPDEST PUSH2 0x111 DUP2 PUSH2 0xCF JUMP JUMPDEST DUP2 EQ PUSH2 0x11C JUMPI PUSH1 0x0 DUP1 REVERT JUMPDEST POP JUMP JUMPDEST PUSH1 0x0 DUP2 CALLDATALOAD SWAP1 POP PUSH2 0x12E DUP2 PUSH2 0x108 JUMP JUMPDEST SWAP3 SWAP2 POP POP JUMP JUMPDEST PUSH1 0x0 PUSH1 0x20 DUP3 DUP5 SUB SLT ISZERO PUSH2 0x14A JUMPI PUSH2 0x149 PUSH2 0x103 JUMP JUMPDEST JUMPDEST PUSH1 0x0 PUSH2 0x158 DUP5 DUP3 DUP6 ADD PUSH2 0x11F JUMP JUMPDEST SWAP2 POP POP SWAP3 SWAP2 POP POP JUMP JUMPDEST PUSH32 0x4E487B7100000000000000000000000000000000000000000000000000000000 PUSH1 0x0 MSTORE PUSH1 0x11 PUSH1 0x4 MSTORE PUSH1 0x24 PUSH1 0x0 REVERT JUMPDEST PUSH1 0x0 PUSH2 0x19B DUP3 PUSH2 0xCF JUMP JUMPDEST SWAP2 POP PUSH2 0x1A6 DUP4 PUSH2 0xCF JUMP JUMPDEST SWAP3 POP DUP3 DUP3 ADD SWAP1 POP DUP1 DUP3 GT ISZERO PUSH2 0x1BE JUMPI PUSH2 0x1BD PUSH2 0x161 JUMP JUMPDEST JUMPDEST SWAP3 SWAP2 POP POP JUMP JUMPDEST PUSH1 0x0 PUSH20 0xFFFFFFFFFFFFFFFFFFFFFFFFFFFFFFFFFFFFFFFF DUP3 AND SWAP1 POP SWAP2 SWAP1 POP JUMP JUMPDEST PUSH1 0x0 PUSH2 0x1EF DUP3 PUSH2 0x1C4 JUMP JUMPDEST SWAP1 POP SWAP2 SWAP1 POP JUMP JUMPDEST PUSH2 0x1FF DUP2 PUSH2 0x1E4 JUMP JUMPDEST DUP3 MSTORE POP POP JUMP JUMPDEST PUSH1 0x0 PUSH1 0x40 DUP3 ADD SWAP1 POP PUSH2 0x21A PUSH1 0x0 DUP4 ADD DUP6 PUSH2 0xD9 JUMP JUMPDEST PUSH2 0x227 PUSH1 0x20 DUP4 ADD DUP5 PUSH2 0x1F6 JUMP JUMPDEST SWAP4 SWAP3 POP POP POP JUMP INVALID LOG2 PUSH5 0x6970667358 0x22 SLT KECCAK256 SWAP9 0xEC 0xB3 0xA6 ADDMOD 0xE1 MSIZE 0xC4 EQ GAS EXTCODEHASH POP 0x2B 0xC8 0xC9 EXTCODEHASH PUSH2 0x6614 PUSH10 0x2ABC173C4999460FF816 PC CALL PUSH5 0x736F6C6343 STOP ADDMOD SGT STOP CALLER "},"methodIdentifiers":{"counter()":"61bc221a","increment(uint256)":"7cf5dab0"}}}}}