{
  "_format": "hh-sol-artifact-1",
  "contractName": "Counter",
  "sourceName": "contracts/Counter.sol",
  "abi": [
    {
      "anonymous": false,
      "inputs": [
        {
          "indexed": false,
          "internalType": "uint256",
          "name": "counter",
          "type": "uint256"
        },
        {
          "indexed": false,
          "internalType": "address",
          "name": "sender",
          "type": "address"
        }
      ],
      "name": "Increment",
      "type": "event"
    },
    {
      "inputs": [],
      "name": "counter",
      "outputs": [
        {
          "internalType": "uint256",
          "name": "",
          "type": "uint256"
        }
      ],
      "stateMutability": "view",
      "type": "function"
    },
    {
      "inputs": [
        {
          "internalType": "uint256",
          "name": "_counter",
          "type": "uint256"
        }
      ],
      "name": "increment",
      "outputs": [],
      "stateMutability": "nonpayable",
      "type": "function"
    }
  ],
  "bytecode": "0x608060405234801561001057600080fd5b50610264806100206000396000f3fe608060405234801561001057600080fd5b50600436106100365760003560e01c806361bc221a1461003b5780637cf5dab014610059575b600080fd5b610043610075565b60405161005091906100e8565b60405180910390f35b610073600480360381019061006e9190610134565b61007b565b005b60005481565b8060008082825461008c9190610190565b925050819055507f04b3522d7223b6ca3966d7b8e6987b92072f14761d7c6d3d6fb653defbae11b681336040516100c4929190610205565b60405180910390a150565b6000819050919050565b6100e2816100cf565b82525050565b60006020820190506100fd60008301846100d9565b92915050565b600080fd5b610111816100cf565b811461011c57600080fd5b50565b60008135905061012e81610108565b92915050565b60006020828403121561014a57610149610103565b5b60006101588482850161011f565b91505092915050565b7f4e487b7100000000000000000000000000000000000000000000000000000000600052601160045260246000fd5b600061019b826100cf565b91506101a6836100cf565b92508282019050808211156101be576101bd610161565b5b92915050565b600073ffffffffffffffffffffffffffffffffffffffff82169050919050565b60006101ef826101c4565b9050919050565b6101ff816101e4565b82525050565b600060408201905061021a60008301856100d9565b61022760208301846101f6565b939250505056fea264697066735822122098ecb3a608e159c4145a3f502bc8c93f616614692abc173c4999460ff81658f164736f6c63430008130033",
  "linkReferences": {},
  "deployedLinkReferences": {}
}